{
  "_format": "hh-sol-artifact-1",
  "contractName": "Staking",
  "sourceName": "contracts/Staking.sol",
  "abi": [
    {
      "inputs": [
        {
          "internalType": "contract IERC20",
          "name": "_stakingToken",
          "type": "address"
        },
        {
          "internalType": "uint256",
          "name": "_rewardRate",
          "type": "uint256"
        },
        {
          "internalType": "uint256",
          "name": "_lowerBound",
          "type": "uint256"
        },
        {
          "internalType": "uint256",
          "name": "_upperBound",
          "type": "uint256"
        }
      ],
      "stateMutability": "nonpayable",
      "type": "constructor"
    },
    {
      "inputs": [
        {
          "internalType": "address",
          "name": "owner",
          "type": "address"
        }
      ],
      "name": "OwnableInvalidOwner",
      "type": "error"
    },
    {
      "inputs": [
        {
          "internalType": "address",
          "name": "account",
          "type": "address"
        }
      ],
      "name": "OwnableUnauthorizedAccount",
      "type": "error"
    },
    {
      "anonymous": false,
      "inputs": [
        {
          "indexed": true,
          "internalType": "address",
          "name": "previousOwner",
          "type": "address"
        },
        {
          "indexed": true,
          "internalType": "address",
          "name": "newOwner",
          "type": "address"
        }
      ],
      "name": "OwnershipTransferred",
      "type": "event"
    },
    {
      "inputs": [],
      "name": "claimRewards",
      "outputs": [],
      "stateMutability": "nonpayable",
      "type": "function"
    },
    {
      "inputs": [
        {
          "internalType": "uint256",
          "name": "amount",
          "type": "uint256"
        }
      ],
      "name": "depositRewards",
      "outputs": [],
      "stateMutability": "nonpayable",
      "type": "function"
    },
    {
      "inputs": [],
      "name": "lowerBound",
      "outputs": [
        {
          "internalType": "uint256",
          "name": "",
          "type": "uint256"
        }
      ],
      "stateMutability": "view",
      "type": "function"
    },
    {
      "inputs": [],
      "name": "owner",
      "outputs": [
        {
          "internalType": "address",
          "name": "",
          "type": "address"
        }
      ],
      "stateMutability": "view",
      "type": "function"
    },
    {
      "inputs": [],
      "name": "renounceOwnership",
      "outputs": [],
      "stateMutability": "nonpayable",
      "type": "function"
    },
    {
      "inputs": [],
      "name": "rewardRate",
      "outputs": [
        {
          "internalType": "uint256",
          "name": "",
          "type": "uint256"
        }
      ],
      "stateMutability": "view",
      "type": "function"
    },
    {
      "inputs": [
        {
          "internalType": "uint256",
          "name": "_rewardRate",
          "type": "uint256"
        }
      ],
      "name": "setRewardRate",
      "outputs": [],
      "stateMutability": "nonpayable",
      "type": "function"
    },
    {
      "inputs": [
        {
          "internalType": "uint256",
          "name": "amount",
          "type": "uint256"
        }
      ],
      "name": "stake",
      "outputs": [],
      "stateMutability": "nonpayable",
      "type": "function"
    },
    {
      "inputs": [
        {
          "internalType": "address",
          "name": "",
          "type": "address"
        }
      ],
      "name": "stakes",
      "outputs": [
        {
          "internalType": "uint256",
          "name": "amount",
          "type": "uint256"
        },
        {
          "internalType": "uint256",
          "name": "timestamp",
          "type": "uint256"
        },
        {
          "internalType": "uint256",
          "name": "rewardDebt",
          "type": "uint256"
        }
      ],
      "stateMutability": "view",
      "type": "function"
    },
    {
      "inputs": [],
      "name": "stakingToken",
      "outputs": [
        {
          "internalType": "contract IERC20",
          "name": "",
          "type": "address"
        }
      ],
      "stateMutability": "view",
      "type": "function"
    },
    {
      "inputs": [],
      "name": "totalStaked",
      "outputs": [
        {
          "internalType": "uint256",
          "name": "",
          "type": "uint256"
        }
      ],
      "stateMutability": "view",
      "type": "function"
    },
    {
      "inputs": [
        {
          "internalType": "address",
          "name": "newOwner",
          "type": "address"
        }
      ],
      "name": "transferOwnership",
      "outputs": [],
      "stateMutability": "nonpayable",
      "type": "function"
    },
    {
      "inputs": [],
      "name": "upperBound",
      "outputs": [
        {
          "internalType": "uint256",
          "name": "",
          "type": "uint256"
        }
      ],
      "stateMutability": "view",
      "type": "function"
    },
    {
      "inputs": [
        {
          "internalType": "uint256",
          "name": "amount",
          "type": "uint256"
        }
      ],
      "name": "withdraw",
      "outputs": [],
      "stateMutability": "nonpayable",
      "type": "function"
    }
  ],
  "bytecode": "0x60806040523480156200001157600080fd5b50604051620016a1380380620016a183398181016040528101906200003791906200029c565b33600073ffffffffffffffffffffffffffffffffffffffff168173ffffffffffffffffffffffffffffffffffffffff1603620000ad5760006040517f1e4fbdf7000000000000000000000000000000000000000000000000000000008152600401620000a491906200031f565b60405180910390fd5b620000be816200011f60201b60201c565b5083600160006101000a81548173ffffffffffffffffffffffffffffffffffffffff021916908373ffffffffffffffffffffffffffffffffffffffff160217905550826003819055508160058190555080600681905550505050506200033c565b60008060009054906101000a900473ffffffffffffffffffffffffffffffffffffffff169050816000806101000a81548173ffffffffffffffffffffffffffffffffffffffff021916908373ffffffffffffffffffffffffffffffffffffffff1602179055508173ffffffffffffffffffffffffffffffffffffffff168173ffffffffffffffffffffffffffffffffffffffff167f8be0079c531659141344cd1fd0a4f28419497f9722a3daafe3b4186f6b6457e060405160405180910390a35050565b600080fd5b600073ffffffffffffffffffffffffffffffffffffffff82169050919050565b60006200021582620001e8565b9050919050565b6000620002298262000208565b9050919050565b6200023b816200021c565b81146200024757600080fd5b50565b6000815190506200025b8162000230565b92915050565b6000819050919050565b620002768162000261565b81146200028257600080fd5b50565b60008151905062000296816200026b565b92915050565b60008060008060808587031215620002b957620002b8620001e3565b5b6000620002c9878288016200024a565b9450506020620002dc8782880162000285565b9350506040620002ef8782880162000285565b9250506060620003028782880162000285565b91505092959194509250565b620003198162000208565b82525050565b60006020820190506200033660008301846200030e565b92915050565b611355806200034c6000396000f3fe608060405234801561001057600080fd5b50600436106100ea5760003560e01c80638bdf67f21161008c578063a384d6ff11610066578063a384d6ff14610201578063a694fc3a1461021f578063b09ad8a01461023b578063f2fde38b14610259576100ea565b80638bdf67f2146101ab5780638da5cb5b146101c75780639e447fc6146101e5576100ea565b8063715018a6116100c8578063715018a61461014757806372f702f3146101515780637b0a47ee1461016f578063817b1cd21461018d576100ea565b806316934fc4146100ef5780632e1a7d4d14610121578063372500ab1461013d575b600080fd5b61010960048036038101906101049190610e37565b610275565b60405161011893929190610e7d565b60405180910390f35b61013b60048036038101906101369190610ee0565b61029f565b005b61014561055b565b005b61014f610742565b005b610159610756565b6040516101669190610f6c565b60405180910390f35b61017761077c565b6040516101849190610f87565b60405180910390f35b610195610782565b6040516101a29190610f87565b60405180910390f35b6101c560048036038101906101c09190610ee0565b610788565b005b6101cf610836565b6040516101dc9190610fb1565b60405180910390f35b6101ff60048036038101906101fa9190610ee0565b61085f565b005b610209610871565b6040516102169190610f87565b60405180910390f35b61023960048036038101906102349190610ee0565b610877565b005b610243610b86565b6040516102509190610f87565b60405180910390f35b610273600480360381019061026e9190610e37565b610b8c565b005b60026020528060005260406000206000915090508060000154908060010154908060020154905083565b80600260003373ffffffffffffffffffffffffffffffffffffffff1673ffffffffffffffffffffffffffffffffffffffff168152602001908152602001600020600001541015610324576040517f08c379a000000000000000000000000000000000000000000000000000000000815260040161031b90611029565b60405180910390fd5b6000670de0b6b3a7640000600260003373ffffffffffffffffffffffffffffffffffffffff1673ffffffffffffffffffffffffffffffffffffffff168152602001908152602001600020600101544261037d9190611078565b600354600260003373ffffffffffffffffffffffffffffffffffffffff1673ffffffffffffffffffffffffffffffffffffffff168152602001908152602001600020600001546103cd91906110ac565b6103d791906110ac565b6103e1919061111d565b905080600260003373ffffffffffffffffffffffffffffffffffffffff1673ffffffffffffffffffffffffffffffffffffffff1681526020019081526020016000206002016000828254610435919061114e565b9250508190555081600260003373ffffffffffffffffffffffffffffffffffffffff1673ffffffffffffffffffffffffffffffffffffffff168152602001908152602001600020600001600082825461048e9190611078565b92505081905550600160009054906101000a900473ffffffffffffffffffffffffffffffffffffffff1673ffffffffffffffffffffffffffffffffffffffff1663a9059cbb33846040518363ffffffff1660e01b81526004016104f2929190611182565b6020604051808303816000875af1158015610511573d6000803e3d6000fd5b505050506040513d601f19601f8201168201806040525081019061053591906111e3565b5081600460008282546105489190611078565b92505081905550610557610c12565b5050565b6000670de0b6b3a7640000600260003373ffffffffffffffffffffffffffffffffffffffff1673ffffffffffffffffffffffffffffffffffffffff16815260200190815260200160002060010154426105b49190611078565b600354600260003373ffffffffffffffffffffffffffffffffffffffff1673ffffffffffffffffffffffffffffffffffffffff1681526020019081526020016000206000015461060491906110ac565b61060e91906110ac565b610618919061111d565b9050600081600260003373ffffffffffffffffffffffffffffffffffffffff1673ffffffffffffffffffffffffffffffffffffffff1681526020019081526020016000206002015461066a919061114e565b9050600081116106af576040517f08c379a00000000000000000000000000000000000000000000000000000000081526004016106a69061125c565b60405180910390fd5b6000600260003373ffffffffffffffffffffffffffffffffffffffff1673ffffffffffffffffffffffffffffffffffffffff1681526020019081526020016000206002018190555042600260003373ffffffffffffffffffffffffffffffffffffffff1673ffffffffffffffffffffffffffffffffffffffff168152602001908152602001600020600101819055505050565b61074a610c81565b6107546000610d08565b565b600160009054906101000a900473ffffffffffffffffffffffffffffffffffffffff1681565b60035481565b60045481565b610790610c81565b600160009054906101000a900473ffffffffffffffffffffffffffffffffffffffff1673ffffffffffffffffffffffffffffffffffffffff166323b872dd3330846040518463ffffffff1660e01b81526004016107ef9392919061127c565b6020604051808303816000875af115801561080e573d6000803e3d6000fd5b505050506040513d601f19601f8201168201806040525081019061083291906111e3565b5050565b60008060009054906101000a900473ffffffffffffffffffffffffffffffffffffffff16905090565b610867610c81565b8060038190555050565b60055481565b600081116108ba576040517f08c379a00000000000000000000000000000000000000000000000000000000081526004016108b1906112ff565b60405180910390fd5b600160009054906101000a900473ffffffffffffffffffffffffffffffffffffffff1673ffffffffffffffffffffffffffffffffffffffff166323b872dd3330846040518463ffffffff1660e01b81526004016109199392919061127c565b6020604051808303816000875af1158015610938573d6000803e3d6000fd5b505050506040513d601f19601f8201168201806040525081019061095c91906111e3565b506000600260003373ffffffffffffffffffffffffffffffffffffffff1673ffffffffffffffffffffffffffffffffffffffff168152602001908152602001600020600001541115610ac2576000670de0b6b3a7640000600260003373ffffffffffffffffffffffffffffffffffffffff1673ffffffffffffffffffffffffffffffffffffffff1681526020019081526020016000206001015442610a019190611078565b600354600260003373ffffffffffffffffffffffffffffffffffffffff1673ffffffffffffffffffffffffffffffffffffffff16815260200190815260200160002060000154610a5191906110ac565b610a5b91906110ac565b610a65919061111d565b905080600260003373ffffffffffffffffffffffffffffffffffffffff1673ffffffffffffffffffffffffffffffffffffffff1681526020019081526020016000206002016000828254610ab9919061114e565b92505081905550505b80600260003373ffffffffffffffffffffffffffffffffffffffff1673ffffffffffffffffffffffffffffffffffffffff1681526020019081526020016000206000016000828254610b14919061114e565b9250508190555042600260003373ffffffffffffffffffffffffffffffffffffffff1673ffffffffffffffffffffffffffffffffffffffff168152602001908152602001600020600101819055508060046000828254610b74919061114e565b92505081905550610b83610c12565b50565b60065481565b610b94610c81565b600073ffffffffffffffffffffffffffffffffffffffff168173ffffffffffffffffffffffffffffffffffffffff1603610c065760006040517f1e4fbdf7000000000000000000000000000000000000000000000000000000008152600401610bfd9190610fb1565b60405180910390fd5b610c0f81610d08565b50565b6005546004541015610c4a57600a600354610c2d919061111d565b60036000828254610c3e919061114e565b92505081905550610c7f565b6006546004541115610c7e57600a600354610c65919061111d565b60036000828254610c769190611078565b925050819055505b5b565b610c89610dcc565b73ffffffffffffffffffffffffffffffffffffffff16610ca7610836565b73ffffffffffffffffffffffffffffffffffffffff1614610d0657610cca610dcc565b6040517f118cdaa7000000000000000000000000000000000000000000000000000000008152600401610cfd9190610fb1565b60405180910390fd5b565b60008060009054906101000a900473ffffffffffffffffffffffffffffffffffffffff169050816000806101000a81548173ffffffffffffffffffffffffffffffffffffffff021916908373ffffffffffffffffffffffffffffffffffffffff1602179055508173ffffffffffffffffffffffffffffffffffffffff168173ffffffffffffffffffffffffffffffffffffffff167f8be0079c531659141344cd1fd0a4f28419497f9722a3daafe3b4186f6b6457e060405160405180910390a35050565b600033905090565b600080fd5b600073ffffffffffffffffffffffffffffffffffffffff82169050919050565b6000610e0482610dd9565b9050919050565b610e1481610df9565b8114610e1f57600080fd5b50565b600081359050610e3181610e0b565b92915050565b600060208284031215610e4d57610e4c610dd4565b5b6000610e5b84828501610e22565b91505092915050565b6000819050919050565b610e7781610e64565b82525050565b6000606082019050610e926000830186610e6e565b610e9f6020830185610e6e565b610eac6040830184610e6e565b949350505050565b610ebd81610e64565b8114610ec857600080fd5b50565b600081359050610eda81610eb4565b92915050565b600060208284031215610ef657610ef5610dd4565b5b6000610f0484828501610ecb565b91505092915050565b6000819050919050565b6000610f32610f2d610f2884610dd9565b610f0d565b610dd9565b9050919050565b6000610f4482610f17565b9050919050565b6000610f5682610f39565b9050919050565b610f6681610f4b565b82525050565b6000602082019050610f816000830184610f5d565b92915050565b6000602082019050610f9c6000830184610e6e565b92915050565b610fab81610df9565b82525050565b6000602082019050610fc66000830184610fa2565b92915050565b600082825260208201905092915050565b7f776974686472617720616d6f756e742065786365656473207374616b65000000600082015250565b6000611013601d83610fcc565b915061101e82610fdd565b602082019050919050565b6000602082019050818103600083015261104281611006565b9050919050565b7f4e487b7100000000000000000000000000000000000000000000000000000000600052601160045260246000fd5b600061108382610e64565b915061108e83610e64565b92508282039050818111156110a6576110a5611049565b5b92915050565b60006110b782610e64565b91506110c283610e64565b92508282026110d081610e64565b915082820484148315176110e7576110e6611049565b5b5092915050565b7f4e487b7100000000000000000000000000000000000000000000000000000000600052601260045260246000fd5b600061112882610e64565b915061113383610e64565b925082611143576111426110ee565b5b828204905092915050565b600061115982610e64565b915061116483610e64565b925082820190508082111561117c5761117b611049565b5b92915050565b60006040820190506111976000830185610fa2565b6111a46020830184610e6e565b9392505050565b60008115159050919050565b6111c0816111ab565b81146111cb57600080fd5b50565b6000815190506111dd816111b7565b92915050565b6000602082840312156111f9576111f8610dd4565b5b6000611207848285016111ce565b91505092915050565b7f6e6f207265776172647320746f20636c61696d00000000000000000000000000600082015250565b6000611246601383610fcc565b915061125182611210565b602082019050919050565b6000602082019050818103600083015261127581611239565b9050919050565b60006060820190506112916000830186610fa2565b61129e6020830185610fa2565b6112ab6040830184610e6e565b949350505050565b7f63616e6e6f74207374616b65203020746f6b656e730000000000000000000000600082015250565b60006112e9601583610fcc565b91506112f4826112b3565b602082019050919050565b60006020820190508181036000830152611318816112dc565b905091905056fea26469706673582212203e34606c3333f4f40cbf9564e2cfd26772bc81567e740f19237863dc198c30b564736f6c63430008180033",
  "linkReferences": {},
  "deployedLinkReferences": {}
}